S00D000054696E4C692E7372656337
S11300000EC026C025C0A5C023C022C021C020C068
S11300101FC01EC01DC01CC01BC01AC019C01124A3
S11300201FBECFEDCDBF10E0A0E6B0E0E0E9F1E007
S113003002C005900D92A236B107D9F720E0A2E6DE
S1130040B0E001C01D92A936B207E1F74CD09EC0C2
S1130050D7CF8F70806287B987EE86B9089584B14F
S113006095B1892F089582E087BB18BA67D05BD019
S11300708091600090916100ECDF78940895809104
S11300806000909161008230910519F00397D1F0DE
S113009026C0E5DF90E09093630080936200209196
S11300A06400309165002817390720F43093630009
S11300B02093620083E090E090936100809360005D
S11300C0C8DF0DC0CCDF90E090936500809364009E
S11300D082E090E09093610080936000BADF8091A9
S11300E062000FD00895BFDF8091680081111092E3
S11300F06800809167008823B9F310926700BFDF1E
S1130100F3CF9FEF980F9E3F48F09AB59F7D9ABD1D
S11301108F3F11F4C19A05C0C19803C09AB590628B
S11301209ABD88BD0895B99AC19883B7826083BF88
S11301308AB583628ABD80E0E4DF089580B7806871
S113014080BF80B7876080BF8CE98EBD80E489BFA3
S113015008951F920F920FB60F9211248F938091DE
S113016066008F5F8093660081E0809368008091D1
S113017066008A3028F081E0809367001092660060
S11301808F910F900FBE0F901F901895F894FFCF8A
S1050190030066
S9030000FC
